:020000040800F2
:10000000D804002065010008F52C0008F72C000832
:10001000692D00086D2D0008712D000800000000FA
:10002000000000000000000000000000752D000826
:10003000772D000800000000792D00087B2D0008B6
:100040007F0100087F0100087F0100087F01000890
:100050007F0100087F0100087F0100087F01000880
:100060007F0100087F0100087F0100087F01000870
:100070007F0100087F0100087F0100087F01000860
:100080007F010008932D00087F0100087F01000810
:100090007F0100087F0100087F0100087F01000840
:1000A0007F0100087F0100087F0100087F01000830
:1000B0007F0100087F0100087F010008832D0008F0
:1000C0008B2D00087F0100087F0100087F010008D8
:1000D0007F0100087F0100087F0100087F01000800
:1000E0007F0100087F0100087F0100080000000078
:1000F0000000000000000000000000000000000000
:1001000000000000000000007F0100087F010008DF
:100110007F0100087F0100087F0100087F010008BF
:100120007F0100087F0100087F0100087F010008AF
:100130007F0100087F0100087F0100087F0100089F
:100140007F0100087F0100087F0100087F0100088F
:10015000DFF80CD003F0F0FA004800475D2C0008EF
:10016000D80400200648804706480047FEE7FEE71F
:10017000FEE7FEE7FEE7FEE7FEE7FEE7FEE7FEE757
:10018000712E00085101000810B50446B4F5E06F67
:100190000BD0B4F5C06F08D0B4F5A06F05D0B4F59E
:1001A000806F02D0B4F5407F00D103E0622162A0ED
:1001B00002F098FD6B4820436B49086010BD2DE9A3
:1001C000F0410446002500270F26E07810B1E078C2
:1001D000012800D103E0742157A002F083FD60786C
:1001E000102800DA03E0752153A002F07BFDA0780F
:1001F000102800DA03E076214FA002F073FDE078CA
:1002000048B35948006800F4E060C0F5E0604FEA88
:100210001025C5F1040726FA05F6607800FA07F5FF
:10022000A07800EA060040EA05054FEA05154F48A8
:1002300022788554207800F01F014FF0010000FA69
:1002400001F021784FEA61114FF0E02202EB8101C9
:10025000C1F8000109E0207800F01F01012088406A
:1002600043492278521141F82200BDE8F08170B56F
:1002700004460D46B4F1005F02D0B4F1006F00D126
:1002800003E09D212CA002F02DFD3A48854200D2CA
:1002900003E09E2128A002F025FD374905EA010070
:1002A00020433649086070BD70B504460D46102CD9
:1002B00003D0042C01D0022C00D103E0B0211EA0F9
:1002C00002F010FD0DB1012D00D103E0B1211AA003
:1002D00002F008FD45B12A48006840EA04004FF0EA
:1002E000E021C1F8100D07E02548006820EA04006D
:1002F0004FF0E021C1F8100D70BD10B50446042C7C
:1003000001D0601D00D103E0C8210BA002F0EAFC7F
:10031000042C08D14FF0E020006940F004004FF0B9
:10032000E021086107E04FF0E020006920F00400C0
:100330004FF0E021086110BD2E2E5C53544D333236
:10034000463130785F5374645065726970685F44F9
:1003500072697665725C7372635C6D6973632E6338
:10036000000000000000FA050CED00E000E400E0F1
:1003700080E100E0FFFF0F0080FFFF1F08ED00E0BD
:1003800010ED00E010B50446FD48844211D0FD4850
:1003900084420ED0FC4884420BD0FC48844208D0F2
:1003A000FB48844205D0FB48844202D0FA4884428C
:1003B00000D103E06E21F9A002F094FCF0488442E1
:1003C00008D10121042001F0C7F80021042001F028
:1003D000C3F846E0EB48844208D10121082001F02F
:1003E000BBF80021082001F0B7F83AE0E648844263
:1003F00008D10121102001F0AFF80021102001F0F8
:10040000ABF82EE0E148844208D10121202001F020
:10041000A3F80021202001F09FF822E0DC4884426C
:1004200008D10121402001F097F80021402001F07F
:1004300093F816E0D748844208D10121802001F0CA
:100440008BF80021802001F087F80AE0D24884422E
:1004500007D10121801501F07FF80021A01501F0DE
:100460007BF810BD10B50121084601F075F8002198
:10047000012001F071F810BD2DE9F05F05460C4632
:100480004FF00009CA4600260027B046B346BC48D4
:10049000854211D0BB4885420ED0BB4885420BD067
:1004A000BA48854208D0BA48854205D0B948854245
:1004B00002D0B948854200D103E0B121B7A002F0D3
:1004C00011FCE078A0B1E078042811D0E078282869
:1004D0000ED0E07848280BD0E078142808D0E078D7
:1004E000102805D0E0781C2802D0E078182800D128
:1004F00003E0B221A9A002F0F5FB002010B920888A
:1005000000B103E0B321A5A002F0ECFBE07800F01D
:100510000F09E07810F0100F10D0A078012805D056
:10052000A078022802D0A078032800D103E0BA21E5
:100530009AA002F0D7FBA07840EA0909208810F0C1
:10054000FF0F27D0D5F8008000261FE0012000FA19
:1005500006F7208800EA070ABA4516D1B7000F202F
:1005600000FA07FB28EA0B0809FA07F040EA080836
:10057000E078282803D10120B040686105E0E078E8
:10058000482802D10120B0402861761C082EDDD316
:10059000C5F800802088FF282BDDD5F804800026D0
:1005A00023E006F10800012101FA00F7208800EAA3
:1005B000070ABA4518D1B7000F2000FA07FB28EA4E
:1005C0000B0809FA07F040EA0808E078282803D168
:1005D00006F1080081406961E078482804D106F1FD
:1005E0000800012181402961761C082ED9D3C5F865
:1005F0000480BDE8F09F4FF6FF71018002218170F9
:100600000421C170704770B505460C4600265C4851
:10061000854211D05B4885420ED05B4885420BD0A5
:100620005A48854208D05A48854205D059488542E3
:1006300002D05948854200D104E040F21D1157A074
:1006400002F050FB012C25D0022C23D0042C21D009
:10065000082C1FD0102C1DD0202C1BD0402C19D0C2
:10066000802C17D0B4F5807F14D0B4F5007F11D062
:10067000B4F5806F0ED0B4F5006F0BD0B4F5805F89
:1006800008D0B4F5005F05D0B4F5804F02D0B4F5C2
:10069000004F00D104E04FF48F7140A002F022FB24
:1006A000A868204201D0012600E00026304670BD37
:1006B00010B504463248844211D0324884420ED0EC
:1006C000314884420BD03148844208D030488442BB
:1006D00005D03048844202D02F48844200D104E043
:1006E00040F233112DA002F0FDFAA06880B210BDD7
:1006F00070B505460C4600262148854211D0214898
:1007000085420ED0204885420BD02048854208D033
:100710001F48854205D01F48854202D01E488542A9
:1007200000D104E040F243111CA002F0DBFA012CDE
:1007300025D0022C23D0042C21D0082C1FD0102C23
:100740001DD0202C1BD0402C19D0802C17D0B4F5F4
:10075000807F14D0B4F5007F11D0B4F5806F0ED037
:10076000B4F5006F0BD0B4F5805F08D0B4F5005F2E
:1007700005D0B4F5804F02D0B4F5004F28D12DE05C
:1007800000080140000C014000100140001401402D
:1007900000180140001C0140002001402E2E5C5337
:1007A000544D3332463130785F537464506572690A
:1007B00070685F4472697665725C7372635C7374AF
:1007C0006D3332663130785F6770696F2E63000079
:1007D0004FF4A271AFF23C0002F084FAE8682042C4
:1007E00001D0012600E00026304670BD10B5044659
:1007F000FF48844211D0FF4884420ED0FE48844214
:100800000BD0FE48844208D0FD48844205D0FD4804
:10081000844202D0FC48844200D105E040F25911E4
:10082000AFF2880002F05EFAE06880B210BD70B5E9
:1008300004460D46EE48844211D0EE4884420ED064
:10084000ED4884420BD0ED48844208D0EC48844205
:1008500005D0EC48844202D0EB48844200D105E048
:100860004FF4B471AFF2CC0002F03CFA002008B9AA
:1008700005B105E040F26911AFF2E00002F032FA92
:10088000256170BD70B504460D46D948844211D02B
:10089000D84884420ED0D84884420BD0D7488442EE
:1008A00008D0D748844205D0D648844202D0D648E2
:1008B000844200D105E04FF4BC71AFF2201002F089
:1008C00011FA002008B905B105E040F27911AFF244
:1008D000341002F007FA656170BD70B505460C462C
:1008E0001646C348854211D0C24885420ED0C24840
:1008F00085420BD0C148854208D0C148854205D009
:10090000C048854202D0C048854200D105E04FF47E
:10091000C671AFF2781002F0E5F9012C25D0022C57
:1009200023D0042C21D0082C1FD0102C1DD0202C1B
:100930001BD0402C19D0802C17D0B4F5807F14D058
:10094000B4F5007F11D0B4F5806F0ED0B4F5006F10
:100950000BD0B4F5805F08D0B4F5005F05D0B4F5D6
:10096000804F02D0B4F5004F00D105E040F28D1168
:10097000AFF2D81002F0B6F90EB1012E00D105E0A9
:100980004FF4C771AFF2EC1002F0ACF90EB12C616C
:1009900000E06C6170BD70B504460D469448844219
:1009A00011D0944884420ED0934884420BD093488F
:1009B000844208D09248844205D09248844202D0B2
:1009C0009148844200D105E040F2A311AFF23420F7
:1009D00002F088F9E56070BD70B504460D464FF42D
:1009E00080368348844211D0824884420ED08248A7
:1009F00084420BD08148844208D08148844205D08B
:100A00008048844202D08048844200D105E04FF4FF
:100A1000DA71AFF2782002F065F9002008B905B16B
:100A200005E040F2B511AFF28C2002F05BF92E43E5
:100A3000A661A561A661A669A66970BD70B50546E7
:100A40000C4600263DB1012D05D0022D03D0032D0B
:100A500001D0042D00D105E040F2D111AFF2C42045
:100A600002F040F9ECB1012C1BD0022C19D0032C60
:100A700017D0042C15D0052C13D0062C11D0072C20
:100A80000FD0082C0DD0092C0BD00A2C09D00B2C20
:100A900007D00C2C05D00D2C03D00E2C01D00F2C20
:100AA00000D105E04FF4E971AFF2103002F01AF90D
:100AB000564806684FF68070064046EA05162643FB
:100AC0005248066070BD10B504460CB1012C00D12F
:100AD00005E040F2E511AFF23C3002F003F94C487A
:100AE000C46110BD2DE9F04704460E460027B84604
:100AF0000025A946012C7AD0022C78D0042C76D07F
:100B0000082C74D0A4F5A010103870D020386ED006
:100B1000A4F5B01040386AD0803868D03D4884428F
:100B200065D03D48844262D03C4884425FD03C4816
:100B300084425CD03B48844259D0B4F5805F56D0A3
:100B4000B4F5EA1F53D0B4F5EB1F50D0B4F5004F05
:100B50004DD0354884424AD0A4F50010801E7DD087
:100B6000801E7BD0001F79D0083877D0B4F1201FC9
:100B700074D0303872D02D4884426FD02C488442D3
:100B80006CD02C48844269D02B48844266D02B48D4
:100B9000844263D0B4F5011F60D0294884425DD0FF
:100BA000401C84425AD0801C844257D0001D84428D
:100BB00054D023480F30844250D021481F30844203
:100BC0004CD01F483F30844248D01D487F3084427B
:100BD00044D01B48FF30844240D01A4884423DD064
:100BE000194884423AD01948844237D030E035E081
:100BF00000080140000C01400010014000140140B9
:100C000000180140001C014000200140000001408C
:100C10000000204200011800000218000003180024
:100C200000081A00000C1A0001002000000130002A
:100C300000023000000430000010200000202000DE
:100C40000100008000020080000400800008008095
:100C50006148844202D06148844200D105E040F2FC
:100C60002721AFF2C84002F03DF80EB1012E00D1AD
:100C700005E04FF40A71AFF2DC4002F033F804F003
:100C80000040B0F1004F02D15548C56901E0544819
:100C90004568C4F30349A7B204F44010B0F5401FFF
:100CA00008D125F070654E48406820F070604C49CE
:100CB000486013E004F48010B0F5801F07D10320D2
:100CC00000FA09F825EA080545F0706506E0600DB0
:100CD000000107FA00F0854345F0706526B1600D0C
:100CE000010107FA01F0054304F00040B0F1004FA4
:100CF00002D13B48C56101E039484560BDE8F08755
:100D000070B505460C4600265DB1012D09D0022DB7
:100D100007D0032D05D0042D03D0052D01D0062DBD
:100D200000D105E040F26221AFF2905001F0DAFF0D
:100D3000ECB1012C1BD0022C19D0032C17D0042CA1
:100D400015D0052C13D0062C11D0072C0FD0082C51
:100D50000DD0092C0BD00A2C09D00B2C07D00C2C51
:100D600005D00D2C03D00E2C01D00F2C00D105E0A6
:100D700040F26321AFF2DC5001F0B4FFA007010F95
:100D80000F2000FA01F616480830A11050F8210093
:100D9000B04313490831A21041F822000846A110BF
:100DA00050F82100A107090F05FA01F108430C4989
:100DB0000831A21041F8220070BD10B504460CB1F4
:100DC000012C00D105E040F27521AFF2306001F056
:100DD00089FF0448046010BD0010008000200080DE
:100DE00000000140DC00204210B50446A4F5AA40F2
:100DF000553800D004B903E05E2124A001F072FF51
:100E00002F48046010BD10B504465CB1012C09D018
:100E1000022C07D0032C05D0042C03D0052C01D0C4
:100E2000062C00D103E0722118A001F05BFF2448DA
:100E3000446010BD10B50446B4F5805F00DA03E0ED
:100E40007F2112A001F04EFF1D48846010BD4AF6BC
:100E5000AA201B49086070474CF6CC40184908602E
:100E6000704770B504460025012C01D0022C00D13A
:100E700003E0A42105A001F035FF1148C06820421D
:100E800001D0012500E00025284670BD2E2E5C53C0
:100E9000544D3332463130785F5374645065726913
:100EA00070685F4472697665725C7372635C7374B8
:100EB0006D3332663130785F697764672E63000086
:100EC00000300040FD48006840F00100FB49086028
:100ED00008464068FA490840F849486008460068F2
:100EE000F8490840F54908600846006820F4802069
:100EF00008600846406820F4FE0048604FF41F0078
:100F00008860704710B504462CB1B4F5803F02D01C
:100F1000B4F5802F00D104E04FF48871EAA001F00D
:100F2000E1FEE648006820F48030E44908600846A5
:100F3000006820F480200860B4F5803F03D0B4F549
:100F4000802F0ED106E0DD48006840F48030DB4998
:100F5000086007E0D948006840F4A020D74908603D
:100F600000E000BF00BF10BD2DE9F04104460025A0
:100F700000260027212C13D0312C11D0392C0FD072
:100F8000412C0DD0612C0BD07A2C09D07B2C07D0B2
:100F90007C2C05D07D2C03D07E2C01D07F2C00D161
:100FA00004E040F23351C8A001F09CFE6511012D10
:100FB00002D1C248066806E0022D02D1BF48066A87
:100FC00001E0BE48466A04F01F050120A8403042F7
:100FD00001D0012700E000273846BDE8F08170B558
:100FE00000240025002600BF3120FFF7BDFF064684
:100FF000641CB4F5A06F01D0002EF5D03120FFF7AE
:10100000B3FF08B1012500E00025284670BD70B58A
:10101000044600251F2C00DC04E040F25111AAA078
:1010200001F060FEA548056825F0F80545EAC4050D
:10103000056070BD10B504460CB1012C00D104E070
:101040004FF4B271A0A001F04DFEAC48046010BD99
:1010500070B505460C4600262DB1B5F5803F02D08F
:10106000B5F5403F00D104E04FF4BF7196A001F008
:1010700039FE4CB3B4F5802F26D0B4F5002F23D021
:10108000B4F5402F20D0B4F5801F1DD0B4F5A01FBB
:101090001AD0B4F5C01F17D0B4F5E01F14D0B4F5C2
:1010A000001F11D0B4F5101F0ED0B4F5201F0BD0C7
:1010B000B4F5301F08D0B4F5401F05D0B4F5501F6B
:1010C00002D0B4F5601F00D104E040F27F117EA091
:1010D00001F008FE7948466826F47C1645EA0400CB
:1010E00006437648466070BD10B504460CB1012C2D
:1010F00000D104E040F2931173A001F0F3FD7F48AA
:10110000046610BD70B5044600251CB1012C01D049
:10111000022C00D104E040F237216BA001F0E2FD87
:101120006648456825F003052543456070BD634862
:10113000406800F00C00704770B5044600257CB193
:10114000802C0DD0902C0BD0A02C09D0B02C07D027
:10115000C02C05D0D02C03D0E02C01D0F02C00D135
:1011600004E040F2632158A001F0BCFD53484568FB
:1011700025F0F0052543456070BD70B50446002597
:101180005CB1B4F5806F08D0B4F5A06F05D0B4F5AC
:10119000C06F02D0B4F5E06F00D104E040F27D21D1
:1011A00049A001F09FFD4548456825F4E0652543C9
:1011B000456070BD70B5044600255CB1B4F5806F24
:1011C00008D0B4F5A06F05D0B4F5C06F02D0B4F567
:1011D000E06F00D104E040F297213BA001F082FDD6
:1011E0003648456825F4605545EAC405456070BD3C
:1011F00070B504460D4614F0E00F01D104B104E0CF
:1012000040F2BE2130A001F06DFD0DB1012D00D1E5
:1012100004E040F2BF212CA001F064FD2DB127486D
:10122000407A20432549487206E02448407AE14349
:10123000C9B208402149487270BD10B504460CB1CE
:10124000012C00D104E040F2DA211FA001F04AFD98
:101250002B48046010BD70B50446002544B1B4F5B8
:10126000804F05D0B4F5004F02D0B4F5404F00D107
:1012700004E040F2013114A001F034FD0F4845684C
:1012800025F440452543456070BD10B504461CB1AA
:10129000012C01D0042C00D104E040F23F310AA01F
:1012A00001F020FD002017490870044981F8200052
:1012B000012C29D0042C2FD12AE00000001002407C
:1012C0000000FFF8FFFFF6FE2E2E5C53544D333224
:1012D000463130785F5374645065726970685F445A
:1012E00072697665725C7372635C73746D333266B7
:1012F0003130785F7263632E630000000000424269
:10130000D8004242201002400120F349087004E056
:101310000520F149087000E000BF00BF10BD10B506
:1013200004460CB1012C00D105E04FF45871AFF226
:10133000680001F0D7FCE948046010BD10B5044610
:10134000B4F5807F05D0B4F5007F02D0B4F5407FBE
:1013500000D105E040F27131AFF2940001F0C2FC1F
:10136000DD482038006A2043DB492039086210BD7F
:1013700010B504460CB1012C00D105E040F27F31DC
:10138000AFF2BC0001F0AEFCD548046010BD30B532
:101390000021002200240023CF4D203D6D6805F080
:1013A0000C0121B1042905D0082926D105E0CD4D35
:1013B000056025E0CB4D056022E0C74D203D6D68FE
:1013C00005F47012C44D203D6D6805F4803402258B
:1013D00005EB92421CB9C44D554305600CE0BE4D6F
:1013E000203D6D6815F4003F03D0BF4D55430560A7
:1013F00002E0BC4D5543056002E0BA4D056000BFF8
:1014000000BFB54D203D6D6805F0F0010909B74DED
:101410006B5C0568DD404560AF4D203D6D6805F4AF
:10142000E061090AB14D6B5C4568DD408560AA4DFD
:10143000203D6D6805F46051C90AAC4D6B5C456890
:10144000DD40C560A44D203D6D6805F44041890B29
:10145000A74D6B5CC568B5FBF3F5056130BD70B594
:1014600004460D4640F2575034EA000001D104B161
:1014700005E040F22A41AFF2B01001F033FC0DB1AB
:10148000012D00D105E040F22B41AFF2C41001F074
:1014900029FC3DB190482038406920438E492039CD
:1014A000486106E08C4820384069A0438A492039C9
:1014B000486170BD70B504460D468E48044201D1A6
:1014C00004B105E040F24941AFF2042001F00AFC0A
:1014D0000DB1012D00D105E040F24A41AFF21820D4
:1014E00001F000FC3DB17C482038806920437A49F6
:1014F0002039886106E0784820388069A043764921
:101500002039886170BD70B504460D467A480442A2
:1015100001D104B105E04FF48D61AFF2542001F028
:10152000E1FB0DB1012D00D105E040F26941AFF2C0
:10153000682001F0D7FB3DB167482038C0692043DF
:1015400065492039C86106E063482038C069A04376
:1015500061492039C86170BD70B504460D466548C3
:10156000044201D104B105E040F2A341AFF2A8204A
:1015700001F0B8FB0DB1012D00D105E040F2A4410E
:10158000AFF2BC2001F0AEFB3DB153482038C0683B
:10159000204351492039C86006E04F482038C068D0
:1015A000A0434D492039C86070BD70B504460D4652
:1015B0005148044201D104B105E040F2C241AFF20A
:1015C000F82001F08FFB0DB1012D00D105E040F2B4
:1015D000C341AFF20C3001F085FB3DB13E482038ED
:1015E000006920433C492039086106E03A48203828
:1015F0000069A04338492039086170BD10B5044620
:101600000CB1012C00D105E040F2D741AFF24830D7
:1016100001F068FB3948046010BD10B504460CB1F8
:10162000012C00D105E040F2E441AFF2643001F05A
:1016300059FB3348C46410BD10B504463CB1052CB9
:1016400005D0042C03D0062C01D0072C00D105E0D6
:1016500040F20451AFF2903001F044FB1E482038B4
:10166000C47110BD1C482038406A40F080701A498F
:1016700020394862704770B504460025012C09D016
:10168000022C07D0042C05D0082C03D0102C01D03C
:10169000802C00D105E040F27D51AFF2D43001F052
:1016A00021FB0D4820388068204201D0012500E050
:1016B0000025284670BD10B5044614F0600F01D116
:1016C00004B105E040F2AA51AFF2044001F00AFB78
:1016D00001482038847210BD20100240800442422C
:1016E0003C04424200127A0000093D000000002044
:1016F000100000200200C0FF003601814004424279
:101700000000424210B50446FA48844202D0FA482A
:10171000844200D103E0A521F8A001F0E3FAF548E6
:10172000844209D101214805FFF73FFF00214FF412
:101730000010FFF73AFF08E001218805FFF735FFA9
:1017400000214FF48000FFF730FF10BD2DE9F0437A
:1017500085B005460C460026B1460427DFF8D08345
:10176000E448854202D0E448854200D103E0C62126
:10177000E2A001F0B7FA206820B1EE492068884263
:1017800000D803E0C721DDA001F0ACFAA08828B1A1
:10179000A088022802D0A0880A2800D103E0C8212E
:1017A000D6A001F09FFAE088B0F5804F04D0E08821
:1017B000A0F53F41FF3900D103E0C921CFA001F0DE
:1017C00091FA2089B0F5806F00DA03E0CA21CBA03E
:1017D00001F088FA6089B0F5806F01D0608900B9A6
:1017E00003E0CB21C5A001F07DFAA089B0F5804FC0
:1017F00003D0A089B0F5404F00D103E0CC21BFA0B9
:1018000001F070FAAE884FF6C0710E406846FFF7DF
:10181000BEFDDDF80880C848B8FBF0F01FFA80F97B
:1018200046EA0906AE8028884FF6FE7108402880F7
:101830000026C249206888420CD820684000B8FBC6
:10184000F0F087B2042F00DA04273E4309F10100CB
:10185000288427E0E088A0F53F41FF3906D12068C1
:1018600000EB4000B8FBF0F087B209E0206800EB25
:10187000C00101EB0010B8FBF0F087B247F48047DD
:101880003805000D01D147F0010747F40040064339
:101890004FF4967009FB00F04FF47A7190FBF1F071
:1018A000401C2884AE83288840F0010028802E88C0
:1018B0004FF6F5310E40A0886189084306432E801B
:1018C000A08921890843288105B0BDE8F08341F251
:1018D00088310160002181804BF6FF71C1800021B9
:1018E000018141814FF480418181704770B5044688
:1018F0000D468048844202D07F48844200D104E0F3
:1019000040F245117DA001F0EDF90DB1012D00D19E
:1019100004E04FF4A37179A001F0E4F925B1208827
:1019200040F00100208004E020884FF6FE7108405E
:10193000208070BD70B504460D466E48844202D0CA
:101940006D48844200D104E040F25D116BA001F0CB
:10195000C9F90DB1012D00D104E04FF4AF7167A0BA
:1019600001F0C0F925B1A08840F40060A08004E037
:10197000A0884FF2FF710840A08070BD70B504468A
:101980000D465C48844202D05B48844200D104E0AA
:1019900040F2751159A001F0A5F90DB1012D00D14A
:1019A00004E04FF4BB7155A001F09CF925B1A0886B
:1019B00040F48050A08004E0A0884EF6FF710840FB
:1019C000A08070BD70B504460D464A48844202D0DE
:1019D0004948844200D104E040F28D1147A001F053
:1019E00081F90DB1012D00D104E04FF4C77143A07E
:1019F00001F078F925B1208840F48070208004E05F
:101A000020884FF6FF610840208070BD70B5044605
:101A10000D463848844202D03748844200D104E061
:101A200040F2A51135A001F05DF90DB1012D00D1F5
:101A300004E04FF4D37131A001F054F925B12088AE
:101A400040F40070208004E020884FF6FF510840E9
:101A5000208070BD70B504460D462648844202D0F1
:101A60002548844200D104E040F2BD1123A001F0DA
:101A700039F90DB1012D00D104E04FF4DF711FA041
:101A800001F030F925B1208840F48060208004E026
:101A900020884FF6FF310840208070BD70B50446A5
:101AA0000E4600251348844202D01348844200D1D8
:101AB00004E04FF4EB7111A001F014F9A5894FF681
:101AC00001710D4006F0FE000543A58170BD70B5A3
:101AD00004460D460748844202D00748844200D19C
:101AE00004E040F2EF1105A001F0FCF80DB1012D6A
:101AF00026D12BE000540040005800402E2E5C53AD
:101B0000544D3332463130785F5374645065726996
:101B100070685F4472697665725C7372635C73743B
:101B20006D3332663130785F6932632E63000000B6
:101B300000127A00801A060040420F00A0860100C1
:101B40004FF4F871AFF24C0001F0CCF825B1A08948
:101B500040F00100A08104E0A0894FF6FE7108402A
:101B6000A08170BD70B504460D46F848844202D08D
:101B7000F748844200D105E040F20721AFF284002B
:101B800001F0B0F80DB1012D00D105E04FF4027164
:101B9000AFF2980001F0A6F825B1208840F040008F
:101BA000208004E020884FF6BF710840208070BD7F
:101BB00070B504460D461646E448844202D0E44817
:101BC000844200D105E04FF40971AFF2D00001F07A
:101BD00089F80EB1012E00D105E040F22521AFF2C7
:101BE000E40001F07FF84FF6FF00054201D105B196
:101BF00005E040F22621AFF2FC0001F073F81EB1BF
:101C0000A0882843A08004E0A088E94389B2084066
:101C1000A08070BD70B504460D46CC48844202D009
:101C2000CB48844200D105E040F23D21AFF23410B0
:101C300001F058F8258270BD10B50446C3488442AF
:101C400002D0C348844200D105E040F24A21AFF2FD
:101C5000541001F047F8208AC0B210BD70B5044698
:101C60000D461646B948844202D0B948844200D194
:101C700005E04FF41771AFF27C1001F033F80EB1AC
:101C8000012E00D105E040F25D21AFF2901001F08D
:101C900029F816B145F0010502E04FF6FE710D403E
:101CA000258270BD70B505460C460026A7488542C2
:101CB00002D0A748854200D105E040F28121AFF271
:101CC000C41001F00FF87CB1042C0DD0082C0BD0FF
:101CD0000C2C09D0102C07D0142C05D0182C03D0B4
:101CE0001C2C01D0202C00D105E040F28221AFF263
:101CF000F41000F0F7FF2E462644308870BD70B512
:101D000004460D469148844202D09148844200D155
:101D100005E040F29521AFF21C2000F0E3FF0DB189
:101D2000012D00D105E040F29621AFF2302000F005
:101D3000D9FF25B1208840F40040208003E02088AE
:101D4000C0F30E00208070BD70B504460D467F487C
:101D5000844202D07E48844200D105E040F2BB219B
:101D6000AFF2682000F0BEFFB5F5006F03D0A5F517
:101D70007740FF3800D105E04FF42F71AFF2842097
:101D800000F0B0FFB5F5006F04D1208840F400608A
:101D9000208004E020884FF2FF710840208070BD51
:101DA00070B504460D466948844202D068488442B2
:101DB00000D105E040F2D721AFF2C02000F092FF41
:101DC000B5F5005F03D0A5F55F40FF3800D105E011
:101DD0004FF43671AFF2DC2000F084FFB5F5005F00
:101DE00004D1208840F40050208004E020884DF683
:101DF000FF710840208070BD70B504460D46534801
:101E0000844202D05248844200D105E040F2EF21E2
:101E1000AFF2183000F066FF0DB1012D00D105E0E2
:101E20004FF43C71AFF22C3000F05CFF25B12088FC
:101E300040F48050208004E020884EF6FF71084076
:101E4000208070BD70B504460D464048844202D0E3
:101E50003F48844200D105E040F20E31AFF26430D9
:101E600000F040FFB5F5006F03D0A5F57740FF38CF
:101E700000D105E040F20F31AFF2803000F032FFC8
:101E8000B5F5006F04D1208840F40060208004E0A4
:101E900020884FF2FF710840208070BD70B5044665
:101EA0000D462A48844202D02948844200D105E0E8
:101EB00040F22631AFF2BC3000F014FF0DB1012D1D
:101EC00000D105E040F22731AFF2D03000F00AFF38
:101ED00025B1208840F02000208004E020884FF6C3
:101EE000DF710840208070BD10B504461748844259
:101EF00002D01748844200D105E04FF44F71AFF291
:101F0000044000F0EFFE208B001210BD70B50446B7
:101F10000D460E48844202D00D48844200D105E0AF
:101F200040F24B31AFF22C4000F0DCFE0DB1012D40
:101F300000D105E04FF45371AFF2404000F0D2FE03
:101F400045B1208840F01000208008E00054004097
:101F50000058004020884FF6EF710840208070BD87
:101F600070B504460D46F048844202D0EF488442E2
:101F700000D105E040F26331AFF2804000F0B2FEE4
:101F80000DB1012D00D105E04FF45971AFF294402D
:101F900000F0A8FE25B9208840F08000208004E0F1
:101FA00020884FF67F710840208070BD70B50446D0
:101FB0000D46DD48844202D0DC48844200D105E071
:101FC00040F27D31AFF2CC4000F08CFEB5F5804F91
:101FD00003D0A5F53F40FF3800D105E040F27E3147
:101FE000AFF2E84000F07EFEB5F5804F05D0A08B43
:101FF0004BF6FF710840A08303E0A08B40F48040C3
:10200000A08370BD2DE9F04705460C460027B94670
:102010000026B046C448854202D0C448854200D15B
:1020200005E040F20D41AFF22C5000F05BFEA4F54C
:10203000C02082383CD0B4F1021F39D0A4F506008C
:10204000803835D0B4F5020F32D0B4F5901F2FD0C0
:10205000A4F5003040382BD0B0F5000028D010F5A2
:10206000E00025D0A4F5C020843821D0B0F50000D0
:102070001ED010F5E0001BD0102C19D0AC488442C3
:1020800016D0A4F5E020823812D0A4F54030801E8E
:102090000ED03E380CD0A4F5E020843808D0001DC6
:1020A00006D0A4F54030083802D0B4F5806F00D1D6
:1020B00005E040F20E41AFF2BC5000F013FEB5F85F
:1020C00014902E8B360449EA060020F07F4707EA79
:1020D0000400A04202D14FF0010801E04FF00008D7
:1020E0004046BDE8F0872DE9F04104460026002770
:1020F00000258D48844202D08C48844200D105E0FE
:1021000040F23C41AFF20C6000F0ECFDA78A258B59
:102110002D0447EA050020F07F463046BDE8F081F7
:102120002DE9F04105460C460027B84600267E48BA
:10213000854202D07D48854200D105E040F27341DE
:10214000AFF2486000F0CEFDB4F5000F38D0B4F522
:10215000800F35D0B4F5001F32D0B4F5801F2FD0DA
:10216000B4F5802F2CD0B4F5003F29D0B4F5803FD2
:1021700026D07048844223D06F48844220D0B4F1E6
:10218000102F1DD06D4884421AD06D48844217D05C
:102190006C48844214D06C48844211D0A4F1805021
:1021A00080380DD040300BD0303009D0083007D007
:1021B000001D05D0801C03D06348FF38844200D145
:1021C00005E040F27441AFF2CC6000F08BFD2E468A
:1021D0004FEA147824F07F44B8F1000F01D0143690
:1021E00001E0240C18363068204201D0012700E0BD
:1021F00000273846BDE8F08170B504460D4600263C
:102200004948844202D04948844200D105E04FF455
:102210009861AFF2187000F065FD42F2FF000542D0
:1022200001D105B105E040F2C141AFF2307000F0DC
:1022300059FD25F07F46F043A08270BD2DE9F041A5
:1022400005460C46002600273748854202D037480D
:10225000854200D105E040F2E441AFF2607000F049
:1022600041FD3A48844224D03948844221D039483B
:1022700084421ED0384884421BD03848844218D04B
:102280003748844215D0B4F1012F12D0A4F1C060B8
:1022900080380ED040300CD0A4F10070103808D037
:1022A000083006D0001D04D0801C02D02D48844286
:1022B00000D105E040F2E541AFF2C07000F012FD40
:1022C000A88804F0E06100EA114724F07F44A88A5E
:1022D000204202D00FB1012600E000263046BDE8C2
:1022E000F08170B504460D4600260F48844202D0A6
:1022F0000E48844200D105E040F21F51AFF60400C1
:1023000000F0F0FC42F2FF00054201D105B105E00A
:102310004FF4A461AFF61C0000F0E4FC25F07F460A
:10232000F043A08270BD00000054004000580040FF
:1023300001000300008000100040001000080010A1
:1023400000040010000200100001001000800001D5
:10235000004000010010000100080001000400011D
:10236000000200010100000210B50446FF4884424B
:102370002AD0FE481430844226D0FC4828308442BB
:1023800022D0FA483C3084421ED0F8485030844273
:102390001AD0F6486430844216D0F448783084422B
:1023A00012D0F34884420FD0F148143084420BD04D
:1023B000EF482830844207D0ED483C30844203D0B7
:1023C000EB485030844200D103E06E21E9A000F0D8
:1023D00089FC20684FF6FE710840206000202060D4
:1023E0006060A060E060E148844208D1DF480838BE
:1023F000406840F00F00DD490839486088E0DB485C
:102400001430844208D1D9480838406840F0F000C0
:10241000D649083948607BE0D4482830844208D146
:10242000D2480838406840F47060D04908394860A4
:102430006EE0CE483C30844208D1CC480838406831
:1024400040F47040C9490839486061E0C7485030DD
:10245000844208D1C5480838406840F47020C34918
:102460000839486054E0C1486430844208D1BF480C
:102470000838406840F47000BC490839486047E0BB
:10248000BA487830844208D1B8480838406840F0EB
:102490007060B649083948603AE0B548844208D1CE
:1024A000A0F10400006840F00F00BF49C1F8040427
:1024B0002EE0AF481430844207D1BC48006840F099
:1024C000F000B949C1F8040422E0A9482830844248
:1024D00007D1B648006840F47060B349C1F80404FD
:1024E00016E0A3483C30844207D1B048006840F46D
:1024F0007040AD49C1F804040AE09D485030844260
:1025000006D1AA48006840F47020A749C1F8040425
:1025100010BD70B505460C460026944885422AD069
:1025200092481430854226D090482830854222D0E7
:102530008E483C3085421ED08C48503085421AD09F
:102540008A486430854216D088487830854212D057
:10255000874885420FD08648143085420BD0844886
:102560002830854207D082483C30854203D08048DD
:102570005030854200D103E0CE217EA000F0B2FBB6
:10258000A068102801D0A06800B903E0CF2179A08D
:1025900000F0A8FBE06820B1E068B0F5803F00D211
:1025A00003E0D02173A000F09DFB2069402801D0FA
:1025B000206900B903E0D1216EA000F093FB6069AF
:1025C000802801D0606900B903E0D22169A000F041
:1025D00089FBA06938B1A069B0F5807F03D0A069FC
:1025E000B0F5007F00D103E0D32162A000F07AFBB8
:1025F000E06938B1E069B0F5806F03D0E069B0F50B
:10260000006F00D103E0D4215AA000F06BFB206AD8
:10261000202801D0206A00B903E0D52155A000F0A0
:1026200061FB606AB0F5405F09D0606AB0F5005F99
:1026300005D0606AB0F5805F01D0606A00B903E040
:10264000D6214CA000F04EFBA06AB0F5804F01D01F
:10265000A06A00B903E0D72146A000F043FB2E6832
:1026600047F6F0708643216AA06808432169084351
:1026700061690843A1690843E1690843616A084345
:10268000A16A084306432E60E06868602068A8607D
:102690006068E86070BD0021016041608160C160D8
:1026A000016141618161C161016241628162704782
:1026B00070B504460D462D4884422AD02B4814306C
:1026C000844226D029482830844222D027483C30F2
:1026D00084421ED02548503084421AD023486430AA
:1026E000844216D021487830844212D02048844257
:1026F0000FD01F48143084420BD01D48283084422C
:1027000007D01B483C30844203D0194850308442E3
:1027100000D104E04FF4947116A000F0E3FA0DB17B
:10272000012D00D104E040F2291112A000F0DAFAE4
:1027300025B1206840F00100206004E020684FF6D9
:10274000FE710840206070BD70B504460D46164607
:10275000064884424CD005481430844248D003488F
:102760002830844244D001483C3021E00800024037
:10277000080402402E2E5C53544D333246313078DB
:102780005F5374645065726970685F4472697665FE
:10279000725C7372635C73746D3332663130785F70
:1027A000646D612E630000000000024004040240DA
:1027B00084421DD0FF4884421AD0FE48143084421F
:1027C00016D0FC482830844212D0FB4884420FD0F7
:1027D000F948143084420BD0F7482830844207D09F
:1027E000F5483C30844203D0F3485030844200D155
:1027F00005E04FF4A471AFF2840000F073FA35F0F5
:102800000E0001D105B105E040F24911AFF29C0084
:1028100000F068FA0EB1012E00D105E04FF4A57169
:10282000AFF2B00000F05EFA1EB1206828432060CD
:1028300002E02068A843206070BD70B504460D46D4
:10284000DC485038844229D0DA483C38844225D0CC
:10285000D8482838844221D0D648143884421DD024
:10286000D44884421AD0D3481430844216D0D14878
:102870002830844212D0D04884420FD0CE48143041
:1028800084420BD0CC482830844207D0CA483C3020
:10289000844203D0C8485030844200D105E040F261
:1028A0006311AFF2301000F01DFA656070BD10B515
:1028B0000446C0485038844229D0BE483C3884423F
:1028C00025D0BC482838844221D0BA4814388442E4
:1028D0001DD0B84884421AD0B6481430844216D06D
:1028E000B4482830844212D0B34884420FD0B24852
:1028F000143084420BD0B0482830844207D0AE4810
:102900003C30844203D0AC485030844200D105E0D2
:1029100040F27511AFF2A41000F0E4F9606880B2E3
:1029200010BD70B5044600250026012C7ED0022C77
:102930007CD0042C7AD0082C7ED0102C7CD0202C7B
:102940007AD0402C78D0802C76D0B4F5807F73D0AC
:10295000B4F5007F70D0B4F5806F6DD0B4F5006F22
:102960006AD0B4F5805F67D0B4F5005F64D0B4F589
:10297000804F61D0B4F5004F5ED0B4F5803F5BD09E
:10298000B4F5003F58D0B4F5802F55D0B4F5002FE2
:1029900052D0B4F5801F4FD0B4F5001F4CD0B4F521
:1029A000800F49D0B4F5000F46D0B4F1807F43D0FA
:1029B000B4F1007F40D0B4F1806F3DD0B4F1006F2E
:1029C0003AD07E48844237D0A4F18050801E33D064
:1029D000801E31D0001F2FD008382DD010382BD0BA
:1029E000203829D0403827D07448FF30844223D083
:1029F0007348844220D0734884421DD07248844278
:102A00001AD0B4F1102F17D04FEAF030844213D00F
:102A10006E48844210D06E4884420DD06D48844286
:102A20000AD06D48844207D06C4800E004E084423C
:102A300002D06B48844200D105E040F2B511AFF2FC
:102A4000CC2000F04FF914F0805F02D06548066892
:102A500002E0584858380668264201D0012500E0B7
:102A60000025284670BD10B5044614F0704F02D002
:102A70005D48044201D104B105E04FF40371AFF2A7
:102A80000C3000F02FF914F0805F02D0574804603A
:102A900002E048485838446010BD70B5044600252F
:102AA0000026012C7ED0022C7CD0042C7AD0082C5D
:102AB0007ED0102C7CD0202C7AD0402C78D0802C4A
:102AC00076D0B4F5807F73D0B4F5007F70D0B4F5C4
:102AD000806F6DD0B4F5006F6AD0B4F5805F67D0B9
:102AE000B4F5005F64D0B4F5804F61D0B4F5004F09
:102AF0005ED0B4F5803F5BD0B4F5003F58D0B4F55C
:102B0000802F55D0B4F5002F52D0B4F5801F4FD090
:102B1000B4F5001F4CD0B4F5800F49D0B4F5000FC8
:102B200046D0B4F1807F43D0B4F1007F40D0B4F1FF
:102B3000806F3DD0B4F1006F3AD02048844237D046
:102B4000A4F18050801E33D0801E31D0001F2FD0C2
:102B500008382DD010382BD0203829D0403827D035
:102B60001648FF30844223D01548844220D01548AF
:102B700084421DD0144884421AD0B4F1102F17D0CB
:102B80004FEAF030844213D01048844210D01048ED
:102B900084420DD00F4884420AD00F48844207D0A7
:102BA0000E4800E004E0844202D00D4884421FD168
:102BB00024E0000058000240080402400100001018
:102BC0000002001000040010000800100040001077
:102BD000008000100000011000000210000004102E
:102BE00000000810000402400000F0EF040402405E
:102BF00040F25621AFF2844000F074F814F0805F88
:102C000002D01248066801E011480668264201D049
:102C1000012500E00025284670BD10B5044614F0DB
:102C2000704F02D00B48044201D104B105E04FF4CB
:102C30002B71AFF2C04000F055F814F0805F02D065
:102C40000548046001E00248446010BD00040240F1
:102C5000000002400000F0EF0404024000F008F918
:102C600000F096F900F0BAF900F0A0F900F0E1F9EF
:102C700000F057FA00F066FA00F03AFB31E01A482B
:102C800001680068401C184A106011F4002F0CD035
:102C90001648007848B900224FF480711448FDF7B7
:102CA0001CFE01201149087013E00F4801680068FC
:102CB000401C0D4A106011F4002F0AD10B48007817
:102CC00038B1012211020A48FDF707FE002007492A
:102CD000087000F00DFC00F05AFB00F078FA00F0EC
:102CE0001DFBCCE7704700001400002018000020F6
:102CF0000014014070474FF40061284800F057FA73
:102D00004FF48051254800F052FA4FF40051234807
:102D100000F04DFA4FF48041204800F048FA4FF49B
:102D200000411E4800F043FA80211C4800F03FFAA1
:102D300010211A4800F03BFA4FF48061174800F068
:102D400036FA00BF1648006800F4E060154940EA12
:102D5000010000F104004FF0E021C1F80C0DBFF3B9
:102D6000408F00BF00BFFEE700BFFEE700BFFEE7E9
:102D700000BFFEE770477047704710B500F004FAD7
:102D800010BD10B500F0F8FB10BD10B500F02FFC21
:102D900010BD10B500F06FFC10BD00000014014024
:102DA0000CED00E00000FA0500210020674A1268DF
:102DB00042F48032654B1A6000BF644A126802F424
:102DC0000030491C10B9B1F5A06FF6D15F4A126806
:102DD00012F4003F01D0012000E00020012842D180
:102DE0005B4A126842F01002594B1A601A46126888
:102DF00022F003021A601A46126842F002021A60B8
:102E0000524A5268514B5A601A4652685A601A46E2
:102E1000526842F480625A601A46526822F47C1268
:102E20005A601A46526842F4A8125A601A4612684A
:102E300042F080721A6000BF444A126812F0007FAC
:102E4000FAD0424A526822F00302404B5A601A46B6
:102E5000526842F002025A6000BF3C4A526802F0D7
:102E60000C02082AF9D1704710B5FFF79DFF10BD7D
:102E700010B53648006840F0010034490860084643
:102E80004068344908403149486008460068324982
:102E900008402E4908600846006820F48020086039
:102EA0000846406820F4FE0048604FF41F00886028
:102EB000FFF7DAFF4FF000602849086010BD10B539
:102EC000002100200022214B5B6803F00C0121B19E
:102ED000042906D0082928D107E0214B214C236082
:102EE00027E01F4B1F4C236023E0184B5B6803F463
:102EF0007010164B5B6803F48032022303EB9040A2
:102F000022B9194B4343174C23600DE00F4B5B680C
:102F100013F4003F04D0144B4343124C236003E0EE
:102F20000F4B43430F4C236003E00D4B0D4C2360CC
:102F300000BF00BF054B5B68C3F303130B4CE15CA0
:102F4000084B1B68CB40074C236010BD00100240AB
:102F5000002002400000FFF8FFFFF6FE08ED00E051
:102F600000127A001C00002000093D002000002013
:102F700010B5002807DA0A07120EEA4B00F00F041A
:102F8000241F1A5503E00A07120EE74B1A5410BD0E
:102F900010B501210846FEF762FA01214805FEF747
:102FA000B2FA01212920FEF785FA10BD10B54FF6BF
:102FB0009070DE490880032088701020C870DC48BB
:102FC000FDF75AFA4FF40040D84908800320887072
:102FD0001020C870D748FDF74FFA10BD10B54FF458
:102FE0008060FDF7D1F81120D349087002204870A5
:102FF000002088700120C8700846FDF7E0F81F2007
:10300000CD49087003204870002088700120C870E6
:103010000846FDF7D4F82020C749087001208870C1
:10302000C8700846FDF7CBF80121881EFFF7A0FF06
:1030300010BD10B58CB001214805FEF7B6FA00218D
:103040004FF40010FEF7B1FA01214805FEF75BFAD4
:1030500001210220FDF746FD4FF44070ADF82C0031
:1030600001208DF82E001C208DF82F000BA9B148EF
:10307000FDF702FA0020B14988804FF48060488152
:10308000AF4808604BF6FF70C8804FF480408881DD
:10309000B0200881AB48FEF759FB40F2FF1400BF97
:1030A0002000A4F101018CB2FAD1A648FEF72AFB58
:1030B000A249A448FEF74AFB0121A248FEF716FCEC
:1030C00001224FF440719F48FEF772FD9E48008830
:1030D00040F400609D49A1F804049D48FFF744F9BD
:1030E00099480C3000909B480190002002900820E5
:1030F0000390002004908020059000200690079007
:1031000008904FF44050099000200A90694690487A
:10311000FFF7FFF9012202218D48FFF715FB0CB0E4
:1031200010BD10B545F25550FDF75EFE0320FDF7CA
:103130006AFE40F25D10FDF77DFEFDF788FEFDF7AB
:103140008BFE10BD10B5844800684FF47A71B0FB57
:10315000F1F4B4F1807F01D3012011E024F07F402D
:10316000401E4FF0E02148610F214FF0FF30FFF784
:10317000FFFE00204FF0E021886107200861002059
:1031800008B100BFFEE710BD74480068401C7349D9
:1031900008607047714909680144714A116000BFB5
:1031A0006F4909686D4A12689142F9D8704770B545
:1031B00004460D4629462046FDF739FB70BD70B523
:1031C00004460D4629462046FDF75CFB70BD10B550
:1031D00088E0002483E0634810F83400A0B361481D
:1031E00000EBC40040685D490968081A642874D37C
:1031F00000205C4901F8340001EBC4014860012261
:1032000051024B48FDF769FB082C64D2DFE804F05B
:1032100004101D2935414D585348007800F0FE0038
:10322000514908704FF480614148FFF7C8FF53E0EF
:103230004D48007800F0FD004B4908704FF40061E4
:103240003B48FFF7BCFF47E047E04748007800F005
:10325000FB00454908704FF480513548FFF7AFFF38
:103260003AE04148007800F0F7003F4908704FF419
:1032700000512F48FFF7A3FF2EE03B48007800F0F5
:10328000EF00394908704FF480412948FFF797FF54
:1032900022E03548007800F0DF00334908704FF431
:1032A00000412348FFF78BFF16E02F48007800F01D
:1032B000BF002D49087080211D48FFF780FF0BE0FB
:1032C0002948007800F07F0027490870102118482D
:1032D000FFF775FF00E000BF00BF601CC4B2082C00
:1032E000FFF679AF2048007800287FF472AF10BD58
:1032F00010B500224FF400410E48FDF7EEFA01220E
:1033000051020B48FDF7E9FA012211020848FDF7C6
:10331000E4FA4021134800F002FA10BD10B5FDF7A1
:1033200096FD10BD18ED00E000E400E0380000203C
:1033300000140140000C01403C0000205800002017
:10334000A08601000054004004540040005000409A
:1033500080000240500000201C00002030000020AF
:10336000340000209400002040000020A521774A6E
:1033700011705A215170B22191701146C87000210C
:10338000117151719171D171714A1170704710B5FD
:1033900070480078012872D16F480078A52805D1BF
:1033A0006D4840785A2801D1012000E00020F0B398
:1033B00000224FF400716948FDF78FFA6648807863
:1033C000B12802D0B32873D104E06349C878FFF76D
:1033D000CDFF88E06048C07800280CDD5E48C078EA
:1033E000092808DA5E4801685B48C078401E5D4ADB
:1033F00002EBC000416001215748C078401E594A85
:1034000002F830105448C078092868D2DFE800F08C
:103410006705131F2B3844515C005348007840F077
:103420000100514908704FF480614C4800E05BE0B6
:10343000FFF7BDFE54E04C48007840F002004A49D6
:1034400008704FF400614548FFF7B1FE48E0464878
:10345000007840F00400444908704FF480513F4820
:10346000FFF7A5FE3CE04048007840F008003E49E8
:1034700008704FF400513948FFF799FE30E036E00C
:103480003948007840F01000374908704FF4804107
:103490003248FFF78CFE23E03348007840F02000EC
:1034A000314908704FF400412C48FFF780FE17E0C7
:1034B00018E02D48007840F040002B49087080212A
:1034C0002648FFF774FE0BE02748007840F08000A4
:1034D0002549087010212148FFF769FE00E000BF70
:1034E00000BF00E000BF00BF00201A49087010BDF7
:1034F00010B500241D480078012800D110BD1C48DB
:10350000048814F0020F05D01A480088401C19499D
:10351000088005E01748008810B100201549088090
:1035200014480088B0F57F4F0EDD00211048183890
:10353000FEF7DCF901210E481838FEF7D7F900F044
:10354000ACF800200B49088000BFD7E748000020F6
:1035500042000020430000205000002000140140E1
:103560003000002094000020400000204400002093
:10357000185400404600002030B58BB000240025D0
:103580005B48048804F00200022824D15848001F38
:1035900000905848019000200290082003900020DD
:1035A00004908020059000200690079008904FF42A
:1035B0004050099000200A9000214F48FFF778F80A
:1035C00069464D48FEF7A5FF01214B48FFF770F80B
:1035D0004A48058800BF14F0100F06D048480088FC
:1035E00040F001004749A1F800040BB030BD0020B5
:1035F0003F49088800F48061B1F5806F0AD13C49E9
:1036000009884FF6FF3201EA02013E4AA2F814147B
:103610004FF0000000F40071B1F5007F0AD1344989
:1036200009884FF6FF3201EA0201364AA2F8141463
:103630004FF0000000F48071B1F5807F0AD12C4971
:1036400009884FF6FF6201EA02012E4AA2F814141B
:103650004FF0000000F40061B1F5006F0AD1244979
:1036600009884FF2FF7201EA0201264AA2F81414F7
:103670004FF00000704710B54FF00070FFF70DFAE3
:1036800050B14FF08070FFF7C8FA00211A48FFF7D9
:103690000FF801201C49087010BD38B54FF4407078
:1036A000ADF8000003208DF8020004208DF803001F
:1036B00069461648FCF7E0FE1148FEF723F80121A1
:1036C0004805FDF772FF00214FF40010FDF76DFF74
:1036D00000214FF40010FDF716FFFFF7AAFCFF24AE
:1036E00000BF2000A4F10101CCB2FAD138BD000026
:1036F0001454004050000020800002401854004044
:10370000005400400050004043000020000C0140E5
:10371000D2B201E000F8012B491EFBD27047002213
:10372000F6E710B504460846114602462046FFF764
:10373000EFFF204610BD0000064C074D06E0E06894
:1037400040F0010394E8070098471034AC42F6D3E8
:10375000FCF702FD7C3700089C37000802E008C82F
:10376000121F08C1002AFAD170477047002001E0FB
:1037700001C1121F002AFBD1704700009C370008CE
:1037800000000020580000005C370008F4370008F3
:1037900058000020800400006C3700080000000082
:1037A00001020304010203040607080902040608D3
:1037B0000000000000000000007E56030000000032
:1037C00000000000010203040607080900000000D1
:1037D00000000000000000000000000000000000E9
:1037E00000000000000000000000000000000000D9
:0437F00000000000D5
:04000005080001519D
:00000001FF
